:020000040000FA
:1000000080313C28393488347E1480310B1F092814
:100010000A283A282100111E0E280F281B2820002C
:10002000111E132814281B2821005F088A005E086F
:100030000A0080313A282100911E1F2820282C28F0
:100040002000911E242825282C2821005D088A00E4
:100050005C080A0080313A282100931C302831289E
:100060003A282000931C352836283A288E315C2601
:1000700080313A287E10090080313E2821008031ED
:1000800002208031E100803103208031E200F00164
:10009000F101F201F301F401F501A0308400003018
:1000A000850028308D31F9258031203084000130E1
:1000B000850030308D31F92580317E10200085316A
:1000C000782D2000CA003D08D1003E08D2003F082C
:1000D000D3004008D4004108D5004208D6004308A8
:1000E000D7004408D8005130860000308700473FD1
:1000F000C500C51B7C287E2801307F2800302000E9
:10010000C600C7014608CF004708D0004F0850047A
:1001100003198B288C28AA28D109D209D309D4091C
:10012000D509D609D709D809D10A031DAA28D20AA8
:10013000031DAA28D30A031DAA28D40A031DAA282E
:10014000D50A031DAA28D60A031DAA28D70A031D0B
:10015000AA28D80A2100BD1BAE28AF28B328FD303D
:10016000F005FF30F1053D08803A2000C5008030E1
:100170004502031DBE28013021003C020318C1289E
:10018000C228C82801302000CB000030CC00D02885
:1001900021003D082000CC0021003C082000CB00BD
:1001A00021003B082000CE0021003A082000CD00AD
:1001B0004F085004031DDD28DE28E228701DE128C9
:1001C000E228E628FF30CD07FF30CE3D1F30D900B2
:1001D0000030DA002200BF015629FF302000D90785
:1001E000FF30DA3D0A30A000A101A201A301A40161
:1001F000A501A601A7015108A8005208A9005308AB
:10020000AA005408AB005508AC005608AD005708CA
:10021000AE005808AF008331DD2380312000210873
:10022000B4002008B3008F3111278031200033083B
:10023000303EC5005908203E860001308700450841
:100240008100FF30CB07FF30CC3DFF30CD07FF30C2
:10025000CE3D0A30A000A101A201A301A401A50185
:10026000A601A7015108A8005208A9005308AA0036
:100270005408AB005508AC005608AD005708AE0056
:100280005808AF008231D822803120002008D100E8
:100290002108D2002208D3002308D4002408D50066
:1002A0002508D6002608D7002708D80020005A08BD
:1002B000803AC50080304502031D60290130590293
:1002C000031C632964299029200051085204530417
:1002D00054045504560457045804031D7029712909
:1002E000ED284C08803AC50080304502031D7A296C
:1002F00001304B0203187D297E29ED2820004E088D
:10030000803AC50080304502031D882901304D0226
:10031000031C8B298C299029F0188F299029ED280E
:1003200020004F085004031D962997299B29701D12
:100330009A299B29B729FF30D907FF30DA3D4F08AA
:100340005004031DA429A529AA292B30C800003078
:10035000C900AE292D30C8000030C9004808C500CA
:100360005908203E86000130870045088100590861
:10037000203EC5004508B4004E08B6004D08B50043
:100380004A0886318726803120003508BE003408AF
:10039000BD0008002000EB005B0886008701403F9D
:1003A000DD00413FDE005D0884005E08850012002C
:1003B000253A031DDC29DD29B42A5B088600870164
:1003C0000130810741310318810A2100BA01BB01C4
:1003D000F001F101FF30BC00FF30BD0020005B08E0
:1003E00086008701403FDD00413FDE005D0884005C
:1003F0005E0885001200633A031DFF29002A222AA5
:100400005B08860087010130810741310318810AAA
:100410005C0886008701010884008501023081079D
:100420000008DD005D08EA006A08DD005D08AC0038
:100430006B0886311626813120002D08DC002C083F
:10044000DB00D72A5B0886008701403FDD00413F83
:10045000DE005D0884005E0885001200643A03191E
:10046000322A332A442A5B0886008701403FDD0098
:10047000413FDE005D0884005E0885001200693A95
:10048000031D432A442A7F2A5B0886008701013026
:10049000810741310318810A5C0886008701010841
:1004A0008400850102308107003FDD00013FDE004E
:1004B0005D08E2005E08E300890D893B8909E400DC
:1004C000E500E600E700E800E9006208BD00630817
:1004D000BE006408BF006508C0006608C100670868
:1004E000C2006808C3006908C4006B08803161203D
:1004F000813120003E08DC003D08DB00D72A5B0884
:1005000086008701403FDD00413FDE005D0884003A
:100510005E0885001200253A031D8F2A902AA92A19
:100520005B08860087010130810741310318810A89
:100530002530A4000030A5006B08DD005D08A60092
:1005400087312527813101302000DB000030DC00BD
:10055000D72A5B08860087010130810741310318E3
:10056000810ADB01DC01D72A5B0886008701403F56
:10057000DD00413FDE005D0884005E088500000864
:10058000DF00E0015F08A4006008A5006B08E1003F
:100590006108A60087312527813120005B0886008D
:1005A00087010130810741310318810AA32A08001D
:1005B0002000B2012030860000308700473FB000A5
:1005C000B01FE32AE42A062B2000A009A109A209F2
:1005D000A309A409A509A609A709A00A031D032BBD
:1005E000A10A031D032BA20A031D032BA30A031D4B
:1005F000032BA40A031D032BA50A031D032BA60A24
:10060000031D032BA70A2000B201B20A283086007E
:1006100000308700473F2000B000B01F102B112B87
:10062000352B2000A809A909AA09AB09AC09AD0915
:10063000AE09AF09A80A031D302BA90A031D302BF0
:10064000AA0A031D302BAB0A031D302BAC0A031D75
:10065000302BAD0A031D302BAE0A031D302BAF0A21
:1006600001302000B0003008B20633308600003080
:10067000870008302000B00000301E00B00B3D2B7A
:10068000200821042204230424042504260427042A
:1006900003194B2B4C2BA82BB101B10A5B2BA035B6
:1006A000A10DA20DA30DA40DA50DA60DA70D013042
:1006B000B0003008B107A71F5E2B5F2B4F2BB3355F
:1006C000B40DB50DB60DB70DB80DB90DBA0D27089F
:1006D0002F02031D852B26082E02031D852B2508BE
:1006E0002D02031D852B24082C02031D852B2308B6
:1006F0002B02031D852B22082A02031D852B2108AE
:100700002902031D852B20082802031C882B892B16
:100710009A2B2008A8022108A93B2208AA3B2308FB
:10072000AB3B2408AC3B2508AD3B2608AE3B270875
:10073000AF3B3314A736A60CA50CA40CA30CA20C3B
:10074000A10CA00C0130B102031DA72BA82B5F2B1D
:1007500032080319AC2BAD2BCB2BB309B409B50967
:10076000B609B709B809B909BA09B30A031DCB2BF1
:10077000B40A031DCB2BB50A031DCB2BB60A031DF0
:10078000CB2BB70A031DCB2BB80A031DCB2BB90A01
:10079000031DCB2BBA0A20003308A0003408A100A7
:1007A0003508A2003608A3003708A4003808A500C1
:1007B0003908A6003A08A70008002000B201283036
:1007C000860000308700473FB000B01FE82BE92BC0
:1007D0000B2C2000A809A909AA09AB09AC09AD098D
:1007E000AE09AF09A80A031D082CA90A031D082C8D
:1007F000AA0A031D082CAB0A031D082CAC0A031D12
:10080000082CAD0A031D082CAE0A031D082CAF0AE4
:100810002000B201B20A2030860000308700473F36
:100820002000B000B01F152C162C352C2000A0097C
:10083000A109A209A309A409A509A609A709A00A53
:10084000031D352CA10A031D352CA20A031D352CCE
:10085000A30A031D352CA40A031D352CA50A031D6C
:10086000352CA60A031D352CA70A200020082104D8
:100870002204230424042504260427040319412CFC
:10088000422C952CB101B10A512CA035A10DA20D1D
:10089000A30DA40DA50DA60DA70D0130B0003008C5
:1008A000B107A71F542C552C452C27082F02031DD8
:1008B000732C26082E02031D732C25082D02031D00
:1008C000732C24082C02031D732C23082B02031DF8
:1008D000732C22082A02031D732C21082902031DF0
:1008E000732C20082802031C762C772C872C2008D8
:1008F000A8022108A93B2208AA3B2308AB3B2408F5
:10090000AC3B2508AD3B2608AE3B2708AF3BA736DE
:10091000A60CA50CA40CA30CA20CA10CA00C0130DD
:10092000B102031D942C952C552C32080319992CD7
:100930009A2CB82CA809A909AA09AB09AC09AD09D8
:10094000AE09AF09A80A031DB82CA90A031DB82CCB
:10095000AA0A031DB82CAB0A031DB82CAC0A031D50
:10096000B82CAD0A031DB82CAE0A031DB82CAF0A73
:1009700020002808A0002908A1002A08A2002B08AE
:10098000A3002C08A4002D08A5002E08A6002F08FF
:10099000A70008002000A8002808A4002408A90037
:1009A00022082304031DD52CD62CD72C772D200804
:1009B000A40029088600013087002408810020084F
:1009C000A40022082907A5002508FF3E8600013063
:1009D000870024088100003023020330031922021B
:1009E0000318F32CF42CF52C772D2008A400290AE9
:1009F000860001308700240881002008A40029080F
:100A0000023E860001308700240881002008A400EF
:100A100022082907A5002508FE3E86000130870030
:100A2000240881002008A40022082907A500250821
:100A3000FD3E86000130870024088100003023023B
:100A40000730031922020318262D272D282D772D74
:100A50002008A4002908033E8600013087002408EE
:100A600081002008A40022082907A5002508FC3ED3
:100A700086000130870024088100003023020930FD
:100A8000031922020318452D462D472D772D2909DC
:100A9000A4002A09A500A40A0319A50A0330240505
:100AA000A60000302505A7002608A4002408A907F1
:100AB0002608A2022708A33BFC30A205FF30A305AD
:100AC000712D2008A4002908860001308700240821
:100AD00081000130A2020030A33B0130A4002408B1
:100AE000A90722082304031D762D772D612D080008
:100AF0008E31952685318B170B1796302200DA0040
:100B00000030DB00BC30DC000230DD0000302000B3
:100B1000A000A1000A30A2000030A30050308431B0
:100B2000CA248531BC302000A0000230A1008E31E3
:100B3000F52685310D302100D500AF30D400B63018
:100B4000890BA02DD40BA02DD50BA02D0000963025
:100B50002000A0000030A1008E31F52685319F30A5
:100B60002000A0000F30A1008E313B2685312100EE
:100B70003F084106031DBE2D3E0840060319C12D46
:100B8000C22DB72DFE30CD008730CE004108D000F9
:100B90004008CF003F08D2003E08D1008E31AB267E
:100BA000853121004108BF004008BE0022005B08DB
:100BB00021004102031DE02D22005A0821004002BD
:100BC0000318E32DE42DF02D22005B082000A10086
:100BD00022005A082000A0008E31F5268531B72D5D
:100BE000410822005D02031DF92D2100400822006A
:100BF0005C020318FC2DFD2D082E5D082000A100CD
:100C000022005C082000A0008E31F5268531B72D2A
:100C1000210041082000A100210040082000A00080
:100C20008E31F5268531B72D80313C282000B50066
:100C300021003A083B04031D1E2E1F2E272E3B08C1
:100C40002000B40021003A082000B300302E3A08FA
:100C5000FF3E2000B300FF3021003B3D2000B400E8
:100C6000701C332E342E422E2C08AE00AF012E08FD
:100C7000A4002F08A5003508B0003008A600873171
:100C8000252786312000B41B462E472E482E4A2E9B
:100C9000B301B401B101B2015E2E20302000A400E6
:100CA0000030A5003508AE002E08A60087312527A4
:100CB000863101302000B1070030B23D3208803A61
:100CC000AE003408803A2E02031D682E330831022C
:100CD000031C6B2E6C2E4D2E70186F2E702E7F2ED7
:100CE00020002C08AE00AF012E08A4002F08A5009C
:100CF0003508B0003008A60087312527863120004E
:100D00003108013EAC000030323DAD00080020004B
:100D1000BC00701C8C2E8D2E952E3C08B700370819
:100D2000AC0034088F314C2786312000B61B992E39
:100D30009A2E9F2E3608BB003508BA00A12EBA01A4
:100D4000BB01B801B901B52E20302000A40000304D
:100D5000A5003C08B7003708A60087312527863153
:100D600001302000B8070030B93D3908803AB7009B
:100D70003B08803A3702031DBF2E3A083802031C95
:100D8000C22EC32EA42E7018C62EC72ED02E200021
:100D90003C08B7003708AC0034088F314C27863147
:100DA00020003408A0000130A1008E31DB268631FE
:100DB00020003A082007B4003B08213DB500080098
:100DC00021009112A4302000A0000730A1008E3134
:100DD0002926863121001112DD302000A0000730C5
:100DE000A1008E3132268631083023009F009030DA
:100DF0009D0024309E0067309B009C01EB3020005A
:100E0000A0000D30A1008E3117268631F130200070
:100E1000A0000D30A1008E3120268631ED3020005B
:100E2000A0000D30A1008E310E2686312100C601B2
:100E3000F501F40108302000A20022082100E000A2
:100E4000F301F201C70191160800200026080319DA
:100E50002A2F2B2F302F2608031D2F2F302F352F11
:100E600024088E3144268731652F2608033E8600EC
:100E700087011600010403193E2F3F2F5C2F26081F
:100E8000033E86008701403FA700413FA800260A95
:100E900086008701403FA900413FAA002A08803A06
:100EA000AB002808803A2B02031D582F270829027F
:100EB00003185B2F5C2F652F2000260A8600870110
:100EC0000130810741310318810A0800523465342A
:100ED000633465346934763465342034743465346D
:100EE000733474343A34203454347934703465347F
:100EF0002034613420346D34653473347334613498
:100F00006734653420347434683465346E34203486
:100F100070347234653473347334203465346E3411
:100F2000743465347234203428346D346134783448
:100F300020343134363420346334683461347234CC
:100F4000733429343A3400347308A03E8600870194
:100F5000810123001D1DAD2FAE2FB92F7308A03EB8
:100F600086008701811421005B088A005A080A0064
:100F7000873123009D1CBD2FBE2FC92F7308A03EB3
:100F8000860087010115210059088A0058080A00C7
:100F900087317308A03E8600870101080319D12F0D
:100FA000D22FD92F22005F088A005E080A008731FD
:100FB000DC2F8E31C1268731080008302100600205
:100FC0000318E32FE42FFC2F7408B03E860087013E
:100FD000010823009A000130F6007608F407083073
:100FE0007402031CF42FF52FF62FF4010130F600E4
:100FF00076082100E007FD2F1112080064347534D3
:10100000743479343D342534643420346F346C3492
:1010100064345F3464347534743479343D34253445
:1010200064340D340A3400340034003475340F3421
:10103000003400340034003432340E34A434073425
:1010400029340E3400340034DD340734E0340634FF
:10105000483465346C346C346F34203457346F3416
:1010600072346C34643421342034253464340A34CA
:1010700000345434723461346E3473346D346934F2
:101080007434203474346534733474340A34003462
:1010900059346F3475342034743479347034653491
:1010A00064343A34203400340A346F346B340034FE
:0610B00025346334003416
:101BD600080008008E31C1268D31080023001D1231
:101BE6001D160800163021009700080064008001C9
:101BF6000131890BFA2D00346830210099009801D3
:101C0600220096010800FF3020009B009A019110E7
:101C160004309C000800200021082200DF0020007C
:101C260020082200DE000800200021082100DB0039
:101C3600200020082100DA000800200021082100E9
:101C4600D900200020082100D80008002000210823
:101C56002100DD00200020082100DC000800200013
:101C660021082100DF00200020082100DE000800F6
:101C7600200021082100D700200020082100D600DE
:101C860008002000A3002308A2002208A0008F312C
:101C960075278E3108003C30250093009501803071
:101CA6009400013096009201FF309100FC309E05B1
:101CB6000800200093102100560857040319642ECB
:101CC600652E6A2E57088A0056080A008E310800CB
:101CD6007C30280096009501200093102100931473
:101CE600EC302000A0000D30A1008E313B268E3155
:101CF6001D3028009700080022008C018D01FF305E
:101D060021008C00F3308D00F03023008D001D3053
:101D16008C0024008D018C012100951722009D0165
:101D26009E0108008E317F268E318D31FF258E3142
:101D36008D31F5258E318E314E268E318E316B26C4
:101D46008E318E3106268E318631E0268E310800A0
:101D5600CF302000EF006F082100D3004E0820008E
:101D6600ED0021004D082000EC00D330EF006F0895
:101D7600EE0000308F31CA278E3108002300190883
:101D8600F6007308A83E86008701760881000130B8
:101D9600F6007608F30708307302031CD32ED42E00
:101DA600D52EF3010130F60076082100C70708009A
:101DB60020002108A4002008A300E52E0130A0077A
:101DC6000030A13D20088400210885001200031D73
:101DD600ED2EEE2EE12E23082002A0002408213B42
:101DE600A100080020002108A3002008A200A336B5
:101DF600A20CA336A20C2208250091002000200880
:101E06000339A2000430A235890B062F25001308DA
:101E1600CF39200022042500930008002000340852
:101E2600803AB50080303502031D1B2F0130330286
:101E360003181E2F1F2F2C2F20003309B50034093D
:101E4600B600B50A0319B60A3508B3003608B40059
:101E56002C2F0800FA01FB01761C322F332F372F67
:101E66007808FA077908FB3D0130F835F90D890B3A
:101E7600382F0130F736F60C890B3D2F760877049C
:101E8600031D462F472F2F2F7B08F7007A08F600F1
:101E960008002000B300B101B201642F3008AD0084
:101EA600AE012D08A4002E08A5002C08AF002F08AF
:101EB600A600873125278F3101302000B107003079
:101EC600B23D31083307AD002D088600013087008A
:101ED6000108AE002E08B0003008031D732F742FC2
:101EE600512F08002100600803197A2F7B2F752FC8
:101EF600111A7E2F7F2F842F2000200823009A009E
:101F06009C2F111220002008A1007508B03E860003
:101F16008701210881000130A1002108F50708305A
:101F26007502031C972F982F992FF5010130210078
:101F3600E00221001116080020008C1CA32FA42FFC
:101F4600A92F01302100C2070030C33D0130210016
:101F5600C4070030C53D643044064504031DB42F54
:101F6600B52FC92FC401C5014308F7004208F60082
:101F76000A30F8000030F9008F312D278F317708AD
:101F86002100C1007608C000C201C301080021007B
:101F9600CA0020006D082100CC0020006C0821003A
:101FA600CB00B801B901EF2FCB30C800480820009C
:101FB600DB006E082100C90049082000DC00210072
:101FC6004A088131CA218F3120005B082100B807F9
:101FD60020005C082100B93D4B0884004C088500B0
:101FE6001200031DF72FF82FD72F39082000ED0018
:0A1FF600210038082000EC0008006C
:020000040001F9
:04000E00E43FFF1EAE
:00000001FF
